{
  "_format": "hh-sol-artifact-1",
  "contractName": "RandomNumber",
  "sourceName": "contracts/RandomNumber.sol",
  "abi": [
    {
      "inputs": [
        {
          "internalType": "string",
          "name": "_seed",
          "type": "string"
        },
        {
          "internalType": "string",
          "name": "_name",
          "type": "string"
        },
        {
          "internalType": "string",
          "name": "_version",
          "type": "string"
        },
        {
          "internalType": "uint64",
          "name": "subscriptionId",
          "type": "uint64"
        }
      ],
      "stateMutability": "nonpayable",
      "type": "constructor"
    },
    {
      "inputs": [
        {
          "internalType": "address",
          "name": "have",
          "type": "address"
        },
        {
          "internalType": "address",
          "name": "want",
          "type": "address"
        }
      ],
      "name": "OnlyCoordinatorCanFulfill",
      "type": "error"
    },
    {
      "anonymous": false,
      "inputs": [
        {
          "indexed": true,
          "internalType": "address",
          "name": "from",
          "type": "address"
        },
        {
          "indexed": true,
          "internalType": "address",
          "name": "to",
          "type": "address"
        }
      ],
      "name": "OwnershipTransferRequested",
      "type": "event"
    },
    {
      "anonymous": false,
      "inputs": [
        {
          "indexed": true,
          "internalType": "address",
          "name": "from",
          "type": "address"
        },
        {
          "indexed": true,
          "internalType": "address",
          "name": "to",
          "type": "address"
        }
      ],
      "name": "OwnershipTransferred",
      "type": "event"
    },
    {
      "inputs": [
        {
          "internalType": "string",
          "name": "_tokenFromUniswap",
          "type": "string"
        },
        {
          "internalType": "uint256",
          "name": "_from",
          "type": "uint256"
        },
        {
          "internalType": "uint256",
          "name": "_to",
          "type": "uint256"
        },
        {
          "internalType": "bytes",
          "name": "_signature",
          "type": "bytes"
        }
      ],
      "name": "_getRandomNumberInRange",
      "outputs": [
        {
          "internalType": "uint256",
          "name": "",
          "type": "uint256"
        }
      ],
      "stateMutability": "view",
      "type": "function"
    },
    {
      "inputs": [],
      "name": "acceptOwnership",
      "outputs": [],
      "stateMutability": "nonpayable",
      "type": "function"
    },
    {
      "inputs": [
        {
          "internalType": "uint256",
          "name": "_requestId",
          "type": "uint256"
        }
      ],
      "name": "getRequestStatus",
      "outputs": [
        {
          "internalType": "bool",
          "name": "fulfilled",
          "type": "bool"
        },
        {
          "internalType": "uint256[]",
          "name": "randomWords",
          "type": "uint256[]"
        }
      ],
      "stateMutability": "view",
      "type": "function"
    },
    {
      "inputs": [],
      "name": "lastRequestId",
      "outputs": [
        {
          "internalType": "uint256",
          "name": "",
          "type": "uint256"
        }
      ],
      "stateMutability": "view",
      "type": "function"
    },
    {
      "inputs": [],
      "name": "owner",
      "outputs": [
        {
          "internalType": "address",
          "name": "",
          "type": "address"
        }
      ],
      "stateMutability": "view",
      "type": "function"
    },
    {
      "inputs": [
        {
          "internalType": "uint256",
          "name": "requestId",
          "type": "uint256"
        },
        {
          "internalType": "uint256[]",
          "name": "randomWords",
          "type": "uint256[]"
        }
      ],
      "name": "rawFulfillRandomWords",
      "outputs": [],
      "stateMutability": "nonpayable",
      "type": "function"
    },
    {
      "inputs": [
        {
          "internalType": "uint256",
          "name": "",
          "type": "uint256"
        }
      ],
      "name": "requestIds",
      "outputs": [
        {
          "internalType": "uint256",
          "name": "",
          "type": "uint256"
        }
      ],
      "stateMutability": "view",
      "type": "function"
    },
    {
      "inputs": [],
      "name": "requestRandomWords",
      "outputs": [
        {
          "internalType": "uint256",
          "name": "requestId",
          "type": "uint256"
        }
      ],
      "stateMutability": "nonpayable",
      "type": "function"
    },
    {
      "inputs": [
        {
          "internalType": "uint256",
          "name": "",
          "type": "uint256"
        }
      ],
      "name": "s_requests",
      "outputs": [
        {
          "internalType": "bool",
          "name": "fulfilled",
          "type": "bool"
        },
        {
          "internalType": "bool",
          "name": "exists",
          "type": "bool"
        }
      ],
      "stateMutability": "view",
      "type": "function"
    },
    {
      "inputs": [
        {
          "internalType": "address",
          "name": "to",
          "type": "address"
        }
      ],
      "name": "transferOwnership",
      "outputs": [],
      "stateMutability": "nonpayable",
      "type": "function"
    }
  ],
  "bytecode": "0x6101606040527f79d3d8832d904592c0bf9818b621522c988bb8b0c05cdc3b15aea1b6e8db0c1560001b600655620186a0600760006101000a81548163ffffffff021916908363ffffffff1602179055506003600760046101000a81548161ffff021916908361ffff1602179055506001600760066101000a81548163ffffffff021916908363ffffffff1602179055503480156200009d57600080fd5b50604051620030a8380380620030a88339818101604052810190620000c391906200069f565b33806000732ca8e0c643bde4c2e08ab1fa0da3401adad7734d868660008280519060200120905060008280519060200120905060007f8b73c3c69bb8fe3d512ecc4cf759cc79239f7b179b0ffacaa9a75d522b39400f90508260e081815250508161010081815250504660a08181525050620001478184846200035c60201b60201c565b608081815250503073ffffffffffffffffffffffffffffffffffffffff1660c08173ffffffffffffffffffffffffffffffffffffffff168152505080610120818152505050505050508073ffffffffffffffffffffffffffffffffffffffff166101408173ffffffffffffffffffffffffffffffffffffffff168152505050600073ffffffffffffffffffffffffffffffffffffffff168273ffffffffffffffffffffffffffffffffffffffff160362000238576040517f08c379a00000000000000000000000000000000000000000000000000000000081526004016200022f90620007cf565b60405180910390fd5b816000806101000a81548173ffffffffffffffffffffffffffffffffffffffff021916908373ffffffffffffffffffffffffffffffffffffffff160217905550600073ffffffffffffffffffffffffffffffffffffffff168173ffffffffffffffffffffffffffffffffffffffff1614620002bf57620002be816200039860201b60201c565b5b5050508360089081620002d3919062000a3c565b50732ca8e0c643bde4c2e08ab1fa0da3401adad7734d600360006101000a81548173ffffffffffffffffffffffffffffffffffffffff021916908373ffffffffffffffffffffffffffffffffffffffff16021790555080600360146101000a81548167ffffffffffffffff021916908367ffffffffffffffff1602179055505050505062000c63565b600083838346306040516020016200037995949392919062000b94565b6040516020818303038152906040528051906020012090509392505050565b3373ffffffffffffffffffffffffffffffffffffffff168173ffffffffffffffffffffffffffffffffffffffff160362000409576040517f08c379a0000000000000000000000000000000000000000000000000000000008152600401620004009062000c41565b60405180910390fd5b80600160006101000a81548173ffffffffffffffffffffffffffffffffffffffff021916908373ffffffffffffffffffffffffffffffffffffffff1602179055508073ffffffffffffffffffffffffffffffffffffffff1660008054906101000a900473ffffffffffffffffffffffffffffffffffffffff1673ffffffffffffffffffffffffffffffffffffffff167fed8889f560326eb138920d842192f0eb3dd22b4f139c87a2c57538e05bae127860405160405180910390a350565b6000604051905090565b600080fd5b600080fd5b600080fd5b600080fd5b6000601f19601f8301169050919050565b7f4e487b7100000000000000000000000000000000000000000000000000000000600052604160045260246000fd5b6200053082620004e5565b810181811067ffffffffffffffff82111715620005525762000551620004f6565b5b80604052505050565b600062000567620004c7565b905062000575828262000525565b919050565b600067ffffffffffffffff821115620005985762000597620004f6565b5b620005a382620004e5565b9050602081019050919050565b60005b83811015620005d0578082015181840152602081019050620005b3565b60008484015250505050565b6000620005f3620005ed846200057a565b6200055b565b905082815260208101848484011115620006125762000611620004e0565b5b6200061f848285620005b0565b509392505050565b600082601f8301126200063f576200063e620004db565b5b815162000651848260208601620005dc565b91505092915050565b600067ffffffffffffffff82169050919050565b62000679816200065a565b81146200068557600080fd5b50565b60008151905062000699816200066e565b92915050565b60008060008060808587031215620006bc57620006bb620004d1565b5b600085015167ffffffffffffffff811115620006dd57620006dc620004d6565b5b620006eb8782880162000627565b945050602085015167ffffffffffffffff8111156200070f576200070e620004d6565b5b6200071d8782880162000627565b935050604085015167ffffffffffffffff811115620007415762000740620004d6565b5b6200074f8782880162000627565b9250506060620007628782880162000688565b91505092959194509250565b600082825260208201905092915050565b7f43616e6e6f7420736574206f776e657220746f207a65726f0000000000000000600082015250565b6000620007b76018836200076e565b9150620007c4826200077f565b602082019050919050565b60006020820190508181036000830152620007ea81620007a8565b9050919050565b600081519050919050565b7f4e487b7100000000000000000000000000000000000000000000000000000000600052602260045260246000fd5b600060028204905060018216806200084457607f821691505b6020821081036200085a5762000859620007fc565b5b50919050565b60008190508160005260206000209050919050565b60006020601f8301049050919050565b600082821b905092915050565b600060088302620008c47fffffffffffffffffffffffffffffffffffffffffffffffffffffffffffffffff8262000885565b620008d0868362000885565b95508019841693508086168417925050509392505050565b6000819050919050565b6000819050919050565b60006200091d620009176200091184620008e8565b620008f2565b620008e8565b9050919050565b6000819050919050565b6200093983620008fc565b62000951620009488262000924565b84845462000892565b825550505050565b600090565b6200096862000959565b620009758184846200092e565b505050565b5b818110156200099d57620009916000826200095e565b6001810190506200097b565b5050565b601f821115620009ec57620009b68162000860565b620009c18462000875565b81016020851015620009d1578190505b620009e9620009e08562000875565b8301826200097a565b50505b505050565b600082821c905092915050565b600062000a1160001984600802620009f1565b1980831691505092915050565b600062000a2c8383620009fe565b9150826002028217905092915050565b62000a4782620007f1565b67ffffffffffffffff81111562000a635762000a62620004f6565b5b62000a6f82546200082b565b62000a7c828285620009a1565b600060209050601f83116001811462000ab4576000841562000a9f578287015190505b62000aab858262000a1e565b86555062000b1b565b601f19841662000ac48662000860565b60005b8281101562000aee5784890151825560018201915060208501945060208101905062000ac7565b8683101562000b0e578489015162000b0a601f891682620009fe565b8355505b6001600288020188555050505b505050505050565b6000819050919050565b62000b388162000b23565b82525050565b62000b4981620008e8565b82525050565b600073ffffffffffffffffffffffffffffffffffffffff82169050919050565b600062000b7c8262000b4f565b9050919050565b62000b8e8162000b6f565b82525050565b600060a08201905062000bab600083018862000b2d565b62000bba602083018762000b2d565b62000bc9604083018662000b2d565b62000bd8606083018562000b3e565b62000be7608083018462000b83565b9695505050505050565b7f43616e6e6f74207472616e7366657220746f2073656c66000000000000000000600082015250565b600062000c296017836200076e565b915062000c368262000bf1565b602082019050919050565b6000602082019050818103600083015262000c5c8162000c1a565b9050919050565b60805160a05160c05160e0516101005161012051610140516123e362000cc560003960008181610203015261025701526000610e4601526000610e8801526000610e6701526000610d9c01526000610df201526000610e1b01526123e36000f3fe608060405234801561001057600080fd5b506004361061009e5760003560e01c8063d8a4676f11610066578063d8a4676f14610148578063da47758d14610179578063e0c86289146101a9578063f2fde38b146101c7578063fc2a88c3146101e35761009e565b80631fe543e3146100a357806379ba5097146100bf5780638796ba8c146100c95780638da5cb5b146100f9578063a168fa8914610117575b600080fd5b6100bd60048036038101906100b891906113c5565b610201565b005b6100c76102c1565b005b6100e360048036038101906100de9190611421565b610456565b6040516100f0919061145d565b60405180910390f35b61010161047a565b60405161010e91906114b9565b60405180910390f35b610131600480360381019061012c9190611421565b6104a3565b60405161013f9291906114ef565b60405180910390f35b610162600480360381019061015d9190611421565b6104e1565b6040516101709291906115d6565b60405180910390f35b610193600480360381019061018e919061175c565b61060c565b6040516101a0919061145d565b60405180910390f35b6101b161075f565b6040516101be919061145d565b60405180910390f35b6101e160048036038101906101dc9190611827565b61096d565b005b6101eb610981565b6040516101f8919061145d565b60405180910390f35b7f000000000000000000000000000000000000000000000000000000000000000073ffffffffffffffffffffffffffffffffffffffff163373ffffffffffffffffffffffffffffffffffffffff16146102b357337f00000000000000000000000000000000000000000000000000000000000000006040517f1cf993f40000000000000000000000000000000000000000000000000000000081526004016102aa929190611854565b60405180910390fd5b6102bd8282610987565b5050565b600160009054906101000a900473ffffffffffffffffffffffffffffffffffffffff1673ffffffffffffffffffffffffffffffffffffffff163373ffffffffffffffffffffffffffffffffffffffff1614610351576040517f08c379a0000000000000000000000000000000000000000000000000000000008152600401610348906118da565b60405180910390fd5b60008060009054906101000a900473ffffffffffffffffffffffffffffffffffffffff169050336000806101000a81548173ffffffffffffffffffffffffffffffffffffffff021916908373ffffffffffffffffffffffffffffffffffffffff1602179055506000600160006101000a81548173ffffffffffffffffffffffffffffffffffffffff021916908373ffffffffffffffffffffffffffffffffffffffff1602179055503373ffffffffffffffffffffffffffffffffffffffff168173ffffffffffffffffffffffffffffffffffffffff167f8be0079c531659141344cd1fd0a4f28419497f9722a3daafe3b4186f6b6457e060405160405180910390a350565b6004818154811061046657600080fd5b906000526020600020016000915090505481565b60008060009054906101000a900473ffffffffffffffffffffffffffffffffffffffff16905090565b60026020528060005260406000206000915090508060000160009054906101000a900460ff16908060000160019054906101000a900460ff16905082565b600060606002600084815260200190815260200160002060000160019054906101000a900460ff16610548576040517f08c379a000000000000000000000000000000000000000000000000000000000815260040161053f90611946565b60405180910390fd5b6000600260008581526020019081526020016000206040518060600160405290816000820160009054906101000a900460ff161515151581526020016000820160019054906101000a900460ff16151515158152602001600182018054806020026020016040519081016040528092919081815260200182805480156105ed57602002820191906000526020600020905b8154815260200190600101908083116105d9575b5050505050815250509050806000015181604001519250925050915091565b6000838311610650576040517f08c379a0000000000000000000000000000000000000000000000000000000008152600401610647906119b2565b60405180910390fd5b3373ffffffffffffffffffffffffffffffffffffffff166106718684610a48565b73ffffffffffffffffffffffffffffffffffffffff16146106c7576040517f08c379a00000000000000000000000000000000000000000000000000000000081526004016106be90611a1e565b60405180910390fd5b6000600185856106d79190611a6d565b6106e19190611aa1565b4344423360088b6040516020016106fd96959493929190611ca7565b604051602081830303815290604052805190602001206040516020016107239190611d3a565b6040516020818303038152906040528051906020012060001c6107469190611d84565b905084816107549190611aa1565b915050949350505050565b6000610769610b9b565b600360009054906101000a900473ffffffffffffffffffffffffffffffffffffffff1673ffffffffffffffffffffffffffffffffffffffff16635d3b1d30600654600360149054906101000a900467ffffffffffffffff16600760049054906101000a900461ffff16600760009054906101000a900463ffffffff16600760069054906101000a900463ffffffff166040518663ffffffff1660e01b8152600401610818959493929190611e23565b6020604051808303816000875af1158015610837573d6000803e3d6000fd5b505050506040513d601f19601f8201168201806040525081019061085b9190611e8b565b90506040518060600160405280600015158152602001600115158152602001600067ffffffffffffffff81111561089557610894611282565b5b6040519080825280602002602001820160405280156108c35781602001602082028036833780820191505090505b508152506002600083815260200190815260200160002060008201518160000160006101000a81548160ff02191690831515021790555060208201518160000160016101000a81548160ff02191690831515021790555060408201518160010190805190602001906109369291906111b8565b5090505060048190806001815401808255809150506001900390600052602060002001600090919091909150558060058190555090565b610975610b9b565b61097e81610c2b565b50565b60055481565b6002600083815260200190815260200160002060000160019054906101000a900460ff166109ea576040517f08c379a00000000000000000000000000000000000000000000000000000000081526004016109e190611946565b60405180910390fd5b60016002600084815260200190815260200160002060000160006101000a81548160ff02191690831515021790555080600260008481526020019081526020016000206001019080519060200190610a439291906111b8565b505050565b600080610aa37f5fc8a0c859bbccf687ea8999fb140a14411775f4898809650c92c138532c8b348580519060200120604051602001610a88929190611eb8565b60405160208183030381529060405280519060200120610d57565b90506000610ab18285610d71565b90503373ffffffffffffffffffffffffffffffffffffffff168173ffffffffffffffffffffffffffffffffffffffff1614610b21576040517f08c379a0000000000000000000000000000000000000000000000000000000008152600401610b1890611f53565b60405180910390fd5b600073ffffffffffffffffffffffffffffffffffffffff168173ffffffffffffffffffffffffffffffffffffffff1603610b90576040517f08c379a0000000000000000000000000000000000000000000000000000000008152600401610b8790611fe5565b60405180910390fd5b809250505092915050565b60008054906101000a900473ffffffffffffffffffffffffffffffffffffffff1673ffffffffffffffffffffffffffffffffffffffff163373ffffffffffffffffffffffffffffffffffffffff1614610c29576040517f08c379a0000000000000000000000000000000000000000000000000000000008152600401610c2090612051565b60405180910390fd5b565b3373ffffffffffffffffffffffffffffffffffffffff168173ffffffffffffffffffffffffffffffffffffffff1603610c99576040517f08c379a0000000000000000000000000000000000000000000000000000000008152600401610c90906120bd565b60405180910390fd5b80600160006101000a81548173ffffffffffffffffffffffffffffffffffffffff021916908373ffffffffffffffffffffffffffffffffffffffff1602179055508073ffffffffffffffffffffffffffffffffffffffff1660008054906101000a900473ffffffffffffffffffffffffffffffffffffffff1673ffffffffffffffffffffffffffffffffffffffff167fed8889f560326eb138920d842192f0eb3dd22b4f139c87a2c57538e05bae127860405160405180910390a350565b6000610d6a610d64610d98565b83610eb2565b9050919050565b6000806000610d808585610ee5565b91509150610d8d81610f36565b819250505092915050565b60007f000000000000000000000000000000000000000000000000000000000000000073ffffffffffffffffffffffffffffffffffffffff163073ffffffffffffffffffffffffffffffffffffffff16148015610e1457507f000000000000000000000000000000000000000000000000000000000000000046145b15610e41577f00000000000000000000000000000000000000000000000000000000000000009050610eaf565b610eac7f00000000000000000000000000000000000000000000000000000000000000007f00000000000000000000000000000000000000000000000000000000000000007f000000000000000000000000000000000000000000000000000000000000000061109c565b90505b90565b60008282604051602001610ec7929190612129565b60405160208183030381529060405280519060200120905092915050565b6000806041835103610f265760008060006020860151925060408601519150606086015160001a9050610f1a878285856110d6565b94509450505050610f2f565b60006002915091505b9250929050565b60006004811115610f4a57610f49612160565b5b816004811115610f5d57610f5c612160565b5b03156110995760016004811115610f7757610f76612160565b5b816004811115610f8a57610f89612160565b5b03610fca576040517f08c379a0000000000000000000000000000000000000000000000000000000008152600401610fc1906121db565b60405180910390fd5b60026004811115610fde57610fdd612160565b5b816004811115610ff157610ff0612160565b5b03611031576040517f08c379a000000000000000000000000000000000000000000000000000000000815260040161102890612247565b60405180910390fd5b6003600481111561104557611044612160565b5b81600481111561105857611057612160565b5b03611098576040517f08c379a000000000000000000000000000000000000000000000000000000000815260040161108f906122d9565b60405180910390fd5b5b50565b600083838346306040516020016110b79594939291906122f9565b6040516020818303038152906040528051906020012090509392505050565b6000807f7fffffffffffffffffffffffffffffff5d576e7357a4501ddfe92f46681b20a08360001c11156111115760006003915091506111af565b6000600187878787604051600081526020016040526040516111369493929190612368565b6020604051602081039080840390855afa158015611158573d6000803e3d6000fd5b505050602060405103519050600073ffffffffffffffffffffffffffffffffffffffff168173ffffffffffffffffffffffffffffffffffffffff16036111a6576000600192509250506111af565b80600092509250505b94509492505050565b8280548282559060005260206000209081019282156111f4579160200282015b828111156111f35782518255916020019190600101906111d8565b5b5090506112019190611205565b5090565b5b8082111561121e576000816000905550600101611206565b5090565b6000604051905090565b600080fd5b600080fd5b6000819050919050565b61124981611236565b811461125457600080fd5b50565b60008135905061126681611240565b92915050565b600080fd5b6000601f19601f8301169050919050565b7f4e487b7100000000000000000000000000000000000000000000000000000000600052604160045260246000fd5b6112ba82611271565b810181811067ffffffffffffffff821117156112d9576112d8611282565b5b80604052505050565b60006112ec611222565b90506112f882826112b1565b919050565b600067ffffffffffffffff82111561131857611317611282565b5b602082029050602081019050919050565b600080fd5b600061134161133c846112fd565b6112e2565b9050808382526020820190506020840283018581111561136457611363611329565b5b835b8181101561138d57806113798882611257565b845260208401935050602081019050611366565b5050509392505050565b600082601f8301126113ac576113ab61126c565b5b81356113bc84826020860161132e565b91505092915050565b600080604083850312156113dc576113db61122c565b5b60006113ea85828601611257565b925050602083013567ffffffffffffffff81111561140b5761140a611231565b5b61141785828601611397565b9150509250929050565b6000602082840312156114375761143661122c565b5b600061144584828501611257565b91505092915050565b61145781611236565b82525050565b6000602082019050611472600083018461144e565b92915050565b600073ffffffffffffffffffffffffffffffffffffffff82169050919050565b60006114a382611478565b9050919050565b6114b381611498565b82525050565b60006020820190506114ce60008301846114aa565b92915050565b60008115159050919050565b6114e9816114d4565b82525050565b600060408201905061150460008301856114e0565b61151160208301846114e0565b9392505050565b600081519050919050565b600082825260208201905092915050565b6000819050602082019050919050565b61154d81611236565b82525050565b600061155f8383611544565b60208301905092915050565b6000602082019050919050565b600061158382611518565b61158d8185611523565b935061159883611534565b8060005b838110156115c95781516115b08882611553565b97506115bb8361156b565b92505060018101905061159c565b5085935050505092915050565b60006040820190506115eb60008301856114e0565b81810360208301526115fd8184611578565b90509392505050565b600080fd5b600067ffffffffffffffff82111561162657611625611282565b5b61162f82611271565b9050602081019050919050565b82818337600083830152505050565b600061165e6116598461160b565b6112e2565b90508281526020810184848401111561167a57611679611606565b5b61168584828561163c565b509392505050565b600082601f8301126116a2576116a161126c565b5b81356116b284826020860161164b565b91505092915050565b600067ffffffffffffffff8211156116d6576116d5611282565b5b6116df82611271565b9050602081019050919050565b60006116ff6116fa846116bb565b6112e2565b90508281526020810184848401111561171b5761171a611606565b5b61172684828561163c565b509392505050565b600082601f8301126117435761174261126c565b5b81356117538482602086016116ec565b91505092915050565b600080600080608085870312156117765761177561122c565b5b600085013567ffffffffffffffff81111561179457611793611231565b5b6117a08782880161168d565b94505060206117b187828801611257565b93505060406117c287828801611257565b925050606085013567ffffffffffffffff8111156117e3576117e2611231565b5b6117ef8782880161172e565b91505092959194509250565b61180481611498565b811461180f57600080fd5b50565b600081359050611821816117fb565b92915050565b60006020828403121561183d5761183c61122c565b5b600061184b84828501611812565b91505092915050565b600060408201905061186960008301856114aa565b61187660208301846114aa565b9392505050565b600082825260208201905092915050565b7f4d7573742062652070726f706f736564206f776e657200000000000000000000600082015250565b60006118c460168361187d565b91506118cf8261188e565b602082019050919050565b600060208201905081810360008301526118f3816118b7565b9050919050565b7f72657175657374206e6f7420666f756e64000000000000000000000000000000600082015250565b600061193060118361187d565b915061193b826118fa565b602082019050919050565b6000602082019050818103600083015261195f81611923565b9050919050565b7f52616e6765206973206e6f742076616c69640000000000000000000000000000600082015250565b600061199c60128361187d565b91506119a782611966565b602082019050919050565b600060208201905081810360008301526119cb8161198f565b9050919050565b7f4e6f7420696e76616c6964000000000000000000000000000000000000000000600082015250565b6000611a08600b8361187d565b9150611a13826119d2565b602082019050919050565b60006020820190508181036000830152611a37816119fb565b9050919050565b7f4e487b7100000000000000000000000000000000000000000000000000000000600052601160045260246000fd5b6000611a7882611236565b9150611a8383611236565b9250828203905081811115611a9b57611a9a611a3e565b5b92915050565b6000611aac82611236565b9150611ab783611236565b9250828201905080821115611acf57611ace611a3e565b5b92915050565b6000819050919050565b611af0611aeb82611236565b611ad5565b82525050565b60008160601b9050919050565b6000611b0e82611af6565b9050919050565b6000611b2082611b03565b9050919050565b611b38611b3382611498565b611b15565b82525050565b7f4e487b7100000000000000000000000000000000000000000000000000000000600052602260045260246000fd5b60006002820490506001821680611b8557607f821691505b602082108103611b9857611b97611b3e565b5b50919050565b600081905092915050565b60008190508160005260206000209050919050565b60008154611bcb81611b6d565b611bd58186611b9e565b94506001821660008114611bf05760018114611c0557611c38565b60ff1983168652811515820286019350611c38565b611c0e85611ba9565b60005b83811015611c3057815481890152600182019150602081019050611c11565b838801955050505b50505092915050565b600081519050919050565b60005b83811015611c6a578082015181840152602081019050611c4f565b60008484015250505050565b6000611c8182611c41565b611c8b8185611b9e565b9350611c9b818560208601611c4c565b80840191505092915050565b6000611cb38289611adf565b602082019150611cc38288611adf565b602082019150611cd38287611adf565b602082019150611ce38286611b27565b601482019150611cf38285611bbe565b9150611cff8284611c76565b9150819050979650505050505050565b6000819050919050565b6000819050919050565b611d34611d2f82611d0f565b611d19565b82525050565b6000611d468284611d23565b60208201915081905092915050565b7f4e487b7100000000000000000000000000000000000000000000000000000000600052601260045260246000fd5b6000611d8f82611236565b9150611d9a83611236565b925082611daa57611da9611d55565b5b828206905092915050565b611dbe81611d0f565b82525050565b600067ffffffffffffffff82169050919050565b611de181611dc4565b82525050565b600061ffff82169050919050565b611dfe81611de7565b82525050565b600063ffffffff82169050919050565b611e1d81611e04565b82525050565b600060a082019050611e386000830188611db5565b611e456020830187611dd8565b611e526040830186611df5565b611e5f6060830185611e14565b611e6c6080830184611e14565b9695505050505050565b600081519050611e8581611240565b92915050565b600060208284031215611ea157611ea061122c565b5b6000611eaf84828501611e76565b91505092915050565b6000604082019050611ecd6000830185611db5565b611eda6020830184611db5565b9392505050565b7f4d65737361676556657269666965723a20696e76616c6964207369676e61747560008201527f7265000000000000000000000000000000000000000000000000000000000000602082015250565b6000611f3d60228361187d565b9150611f4882611ee1565b604082019050919050565b60006020820190508181036000830152611f6c81611f30565b9050919050565b7f45434453415570677261646561626c653a20696e76616c6964207369676e617460008201527f7572650000000000000000000000000000000000000000000000000000000000602082015250565b6000611fcf60238361187d565b9150611fda82611f73565b604082019050919050565b60006020820190508181036000830152611ffe81611fc2565b9050919050565b7f4f6e6c792063616c6c61626c65206279206f776e657200000000000000000000600082015250565b600061203b60168361187d565b915061204682612005565b602082019050919050565b6000602082019050818103600083015261206a8161202e565b9050919050565b7f43616e6e6f74207472616e7366657220746f2073656c66000000000000000000600082015250565b60006120a760178361187d565b91506120b282612071565b602082019050919050565b600060208201905081810360008301526120d68161209a565b9050919050565b7f1901000000000000000000000000000000000000000000000000000000000000600082015250565b6000612113600283611b9e565b915061211e826120dd565b600282019050919050565b600061213482612106565b91506121408285611d23565b6020820191506121508284611d23565b6020820191508190509392505050565b7f4e487b7100000000000000000000000000000000000000000000000000000000600052602160045260246000fd5b7f45434453413a20696e76616c6964207369676e61747572650000000000000000600082015250565b60006121c560188361187d565b91506121d08261218f565b602082019050919050565b600060208201905081810360008301526121f4816121b8565b9050919050565b7f45434453413a20696e76616c6964207369676e6174757265206c656e67746800600082015250565b6000612231601f8361187d565b915061223c826121fb565b602082019050919050565b6000602082019050818103600083015261226081612224565b9050919050565b7f45434453413a20696e76616c6964207369676e6174757265202773272076616c60008201527f7565000000000000000000000000000000000000000000000000000000000000602082015250565b60006122c360228361187d565b91506122ce82612267565b604082019050919050565b600060208201905081810360008301526122f2816122b6565b9050919050565b600060a08201905061230e6000830188611db5565b61231b6020830187611db5565b6123286040830186611db5565b612335606083018561144e565b61234260808301846114aa565b9695505050505050565b600060ff82169050919050565b6123628161234c565b82525050565b600060808201905061237d6000830187611db5565b61238a6020830186612359565b6123976040830185611db5565b6123a46060830184611db5565b9594505050505056fea2646970667358221220dbdac2dc45fe58514ca30021ab534d85288cd48737179f8b4e0a6c8ca28d322164736f6c63430008110033",
  "linkReferences": {},
  "deployedLinkReferences": {}
}